{
  "hash": "0x3c09b6099ec60559fd2c71047cf6fe07c267d9fe3699e3a2afc42c9b6685d3e3",
  "mainBlockGeneralGasLimit": "0x1c9c380",
  "sharedGasLimit": "0x2faf080",
  "timestampMillisPart": "0x2a5",
  "parentHash": "0x873216d50175c64e06bf9361df3b8421b3bab4411070efbc1dc84d2377ca63c9",
  "sha3Uncles": "0x1dcc4de8dec75d7aab85b567b6ccd41ad312451b948a7413f0a142fd40d49347",
  "miner": "0x0000000000000000000000000000000000000000",
  "stateRoot": "0xec21e88d64d627286dd8f5664ee60352d2af165b1976bc6f7502331379b9d0cf",
  "transactionsRoot": "0xf9c37bf1cffd357a20ebbe25a283ea52dce806f69e615cf934c9359a64ad921b",
  "receiptsRoot": "0x4fbc6c27b900880af54cdf2604ad465588eb38b3f41934ea497cf0f46d108fda",
  "logsBloom": "0x400000000604000000882000040040004004c420001810400040000000804000000008008000000084001010010000000080000020c2003282000000002800000800040000a0340002000408080401000008080000211000000000000400000000414082020100000000000042080c00009200040040400015000d10008020004001428064040000000e000090a40000100001109001000000400800030000000200a0000c00000804000010a88040000086004400000008000400000000088040000042000241000108210c040000000000200400140000000020c0180022000110002020000000000000100400008480000040000000200018009000400002",
  "difficulty": "0x0",
  "number": "0x5b8e32",
  "gasLimit": "0x1dcd6500",
  "gasUsed": "0x55da62",
  "timestamp": "0x699c10ec",
  "extraData": "0x",
  "mixHash": "0x0000000000000000000000000000000000000000000000000000000000000000",
  "nonce": "0x0000000000000000",
  "baseFeePerGas": "0x4a817c800",
  "withdrawalsRoot": "0x56e81f171bcc55a6ff8345e692c0f86e5b48e01b996cadc001622fb5e363b421",
  "blobGasUsed": "0x0",
  "excessBlobGas": "0x0",
  "parentBeaconBlockRoot": "0x0000000000000000000000000000000000000000000000000000000000000000",
  "requestsHash": "0xe3b0c44298fc1c149afbf4c8996fb92427ae41e4649b934ca495991b7852b855",
  "size": "0x2958",
  "timestampMillis": "0x19c89a21c85",
  "uncles": [],
  "transactions": [
    {
      "type": "0x2",
      "chainId": "0xa5bf",
      "nonce": "0x6d",
      "gas": "0x1094d",
      "maxFeePerGas": "0x9503ed240",
      "maxPriorityFeePerGas": "0xf4240",
      "to": "0x20c0000000000000000000000000000000000001",
      "value": "0x0",
      "accessList": [],
      "input": "0xa9059cbb000000000000000000000000e3b0c1ee5319f0808f600e5c8c674b4d0d467fbc00000000000000000000000000000000000000000000000000000229c9b10043",
      "r": "0xa1dc8173ae80da50521fe112e5422212c78dc4fa54c10c35a0bc1bd899916e31",
      "s": "0x648a566a98e453cbffb304dd505fb6bc30422d7d3b99c717ff9100525b0b9d44",
      "yParity": "0x1",
      "v": "0x1",
      "hash": "0x621a635a1de53454f46e16b52c6ec294b32fd30632cfcca6b53d7667e3e046c1",
      "blockHash": "0x3c09b6099ec60559fd2c71047cf6fe07c267d9fe3699e3a2afc42c9b6685d3e3",
      "blockNumber": "0x5b8e32",
      "transactionIndex": "0x0",
      "from": "0x5cc4ec062c77ce46a7291c2fdc88e17ebb40e806",
      "gasPrice": "0x4a8270a40"
    },
    {
      "type": "0x2",
      "chainId": "0xa5bf",
      "nonce": "0xb2",
      "gas": "0x7ff0",
      "maxFeePerGas": "0x9503ed240",
      "maxPriorityFeePerGas": "0xf4240",
      "to": "0x009f3df0871c3773cc65976b010e147bcd0a7bfd",
      "value": "0x0",
      "accessList": [],
      "input": "0x84bb1e420000000000000000000000006e136ea8a05d7bfae4913d1185e3e493de342b940000000000000000000000000000000000000000000000000000000000000001000000000000000000000000eeeeeeeeeeeeeeeeeeeeeeeeeeeeeeeeeeeeeeee000000000000000000000000000000000000000000000000000000000000000000000000000000000000000000000000000000000000000000000000000000c00000000000000000000000000000000000000000000000000000000000000160000000000000000000000000000000000000000000000000000000000000008000000000000000000000000000000000000000000000000000000000000000000000000000000000000000000000000000000000000000000000000000000000000000000000000000000000eeeeeeeeeeeeeeeeeeeeeeeeeeeeeeeeeeeeeeee00000000000000000000000000000000000000000000000000000000000000000000000000000000000000000000000000000000000000000000000000000000",
      "r": "0x3b84e6c63062776df165d416567c0220eaec88a1ccda73827db82b1f64dbdd10",
      "s": "0x97a0ef602d80807136bfbc5dab2d97dc10154262cc53daadb7e0e098b976a0b",
      "yParity": "0x1",
      "v": "0x1",
      "hash": "0x9d255badc5945b828de5306676ab2217656d737f1fa8c142e5fd2e892f0f0e13",
      "blockHash": "0x3c09b6099ec60559fd2c71047cf6fe07c267d9fe3699e3a2afc42c9b6685d3e3",
      "blockNumber": "0x5b8e32",
      "transactionIndex": "0x1",
      "from": "0x6e136ea8a05d7bfae4913d1185e3e493de342b94",
      "gasPrice": "0x4a8270a40"
    },
    {
      "type": "0x2",
      "chainId": "0xa5bf",
      "nonce": "0x1b",
      "gas": "0xffd5",
      "maxFeePerGas": "0x9503ed240",
      "maxPriorityFeePerGas": "0xf4240",
      "to": "0x20c0000000000000000000000000000000000001",
      "value": "0x0",
      "accessList": [],
      "input": "0xa9059cbb000000000000000000000000f7b09a0f52dc08b90e2604f0c0dd11ca682a00480000000000000000000000000000000000000000000000000000009884647ebd",
      "r": "0xf2252b670ec84b0e6421bb252f035e7be592dc39577a54fff88efe59f7564f79",
      "s": "0x7d2de0ff3b602d606e524eda4d35235ab335f3c78b35448617056501f6b35d79",
      "yParity": "0x1",
      "v": "0x1",
      "hash": "0xdd7fdb772d26ea90c7970002fe8ce890a8031f1bca3b5186360f77f4d9352ab0",
      "blockHash": "0x3c09b6099ec60559fd2c71047cf6fe07c267d9fe3699e3a2afc42c9b6685d3e3",
      "blockNumber": "0x5b8e32",
      "transactionIndex": "0x2",
      "from": "0x79e1e52d3d8d5cb78ccc28d4aad8968d332cff8a",
      "gasPrice": "0x4a8270a40"
    },
    {
      "type": "0x2",
      "chainId": "0xa5bf",
      "nonce": "0x7c",
      "gas": "0x6c2b",
      "maxFeePerGas": "0x9503ed240",
      "maxPriorityFeePerGas": "0xf4240",
      "to": "0x70a57af45cd15f1565808cf7b1070bac363afd8a",
      "value": "0x0",
      "accessList": [],
      "input": "0x1e59c5290000000000000000000000000000000000000000000000000000000000000040000000000000000000000000000000000000000000000000000000000000000000000000000000000000000000000000000000000000000000000000000000087072696d6564616f000000000000000000000000000000000000000000000000",
      "r": "0x711b7743e8b64fd7e3da8f45ded937b57b81f9aa825650dfca5ee41e32806b43",
      "s": "0x6c37efec43c5efe446cd0e2662cf15d82eb9deed6644584ba893b51b29633025",
      "yParity": "0x1",
      "v": "0x1",
      "hash": "0xae20e49f830dff3da6d764b1418d2539c7954dd3d30a392a5dcc957a1a5f1d86",
      "blockHash": "0x3c09b6099ec60559fd2c71047cf6fe07c267d9fe3699e3a2afc42c9b6685d3e3",
      "blockNumber": "0x5b8e32",
      "transactionIndex": "0x3",
      "from": "0x28f83d8383080ef9b0f0528db4ea997554387e5f",
      "gasPrice": "0x4a8270a40"
    },
    {
      "type": "0x2",
      "chainId": "0xa5bf",
      "nonce": "0x94",
      "gas": "0x7ff0",
      "maxFeePerGas": "0x9503ed240",
      "maxPriorityFeePerGas": "0xf4240",
      "to": "0xaa3aa71a8e88048026845bcec658c08424c1a6a0",
      "value": "0x0",
      "accessList": [],
      "input": "0x84bb1e42000000000000000000000000f378c5b7c81928db9a06f501d1d4dbaa2803fb390000000000000000000000000000000000000000000000000000000000000001000000000000000000000000eeeeeeeeeeeeeeeeeeeeeeeeeeeeeeeeeeeeeeee000000000000000000000000000000000000000000000000000000000000000000000000000000000000000000000000000000000000000000000000000000c00000000000000000000000000000000000000000000000000000000000000160000000000000000000000000000000000000000000000000000000000000008000000000000000000000000000000000000000000000000000000000000000000000000000000000000000000000000000000000000000000000000000000000000000000000000000000000eeeeeeeeeeeeeeeeeeeeeeeeeeeeeeeeeeeeeeee00000000000000000000000000000000000000000000000000000000000000000000000000000000000000000000000000000000000000000000000000000000",
      "r": "0x63872121c00381f7066d7aaa3988b3d4937a4e1307fe599fd667f52d1aad610d",
      "s": "0x50b279a22e6aa7ab9084ad486f5ebb6eef08f0b95de285bef895f427775625e2",
      "yParity": "0x1",
      "v": "0x1",
      "hash": "0xac00c3b95b5bace0dbc723c03c3ea4b8879761c77fe8822d58255c638a72505a",
      "blockHash": "0x3c09b6099ec60559fd2c71047cf6fe07c267d9fe3699e3a2afc42c9b6685d3e3",
      "blockNumber": "0x5b8e32",
      "transactionIndex": "0x4",
      "from": "0xf378c5b7c81928db9a06f501d1d4dbaa2803fb39",
      "gasPrice": "0x4a8270a40"
    },
    {
      "type": "0x2",
      "chainId": "0xa5bf",
      "nonce": "0x3a",
      "gas": "0xffe4",
      "maxFeePerGas": "0x9503ed240",
      "maxPriorityFeePerGas": "0xf4240",
      "to": "0x20c0000000000000000000000000000000000003",
      "value": "0x0",
      "accessList": [],
      "input": "0xa9059cbb000000000000000000000000e53d6178e22532587bb02792c048e9241bd6cc1e000000000000000000000000000000000000000000000000000000cb9da2f7bb",
      "r": "0xa2aac7efd2c7a740a80c6a5cd5cae212348a16823ecf39f7a8a1f39695a3f4d9",
      "s": "0x35b17fcf91297b4375b2c1cc6631bff873d72d53ba404257f9c427e3fb0e7184",
      "yParity": "0x0",
      "v": "0x0",
      "hash": "0x9bcb0500a184a2519f31cf3497396ec226b1f9aabf9802e41f1d329cdcd97408",
      "blockHash": "0x3c09b6099ec60559fd2c71047cf6fe07c267d9fe3699e3a2afc42c9b6685d3e3",
      "blockNumber": "0x5b8e32",
      "transactionIndex": "0x5",
      "from": "0x799c9d8f128ad7d5dd3d48c7d878eed1d040e330",
      "gasPrice": "0x4a8270a40"
    },
    {
      "type": "0x2",
      "chainId": "0xa5bf",
      "nonce": "0x72",
      "gas": "0x6c8b",
      "maxFeePerGas": "0x9503ed240",
      "maxPriorityFeePerGas": "0xf4240",
      "to": "0x960601a1180570ccec973e524301d688e20a24c2",
      "value": "0x0",
      "accessList": [],
      "input": "0xa25ffea800000000000000000000000000000000000000000000000000000000000000000000000000000000000000000000000000000000000000000000000000000001000000000000000000000000000000000000000000000000000000000000000000000000000000000000000000000000000000000000000000000000000000800000000000000000000000000000000000000000000000000000000000000000",
      "r": "0xbab3256389e27affe825cee069346b6f9511b3e15b0357710a946c61664e056c",
      "s": "0x186de3f68ced268bb0b3205133c6ceef7feea70e772760a4a871cb1276137dd0",
      "yParity": "0x0",
      "v": "0x0",
      "hash": "0x9a4de00ccdefad7ebf27780ed0d56783aaf0c0bb378d06d37d77bd7db3da4406",
      "blockHash": "0x3c09b6099ec60559fd2c71047cf6fe07c267d9fe3699e3a2afc42c9b6685d3e3",
      "blockNumber": "0x5b8e32",
      "transactionIndex": "0x6",
      "from": "0xebcf07fa7bc8b023259fb8723ab34223de5e3d94",
      "gasPrice": "0x4a8270a40"
    },
    {
      "type": "0x2",
      "chainId": "0xa5bf",
      "nonce": "0x7d",
      "gas": "0x6c4f",
      "maxFeePerGas": "0x9503ed240",
      "maxPriorityFeePerGas": "0xf4240",
      "to": "0x70a57af45cd15f1565808cf7b1070bac363afd8a",
      "value": "0x0",
      "accessList": [],
      "input": "0x1e59c5290000000000000000000000000000000000000000000000000000000000000040000000000000000000000000000000000000000000000000000000000000000000000000000000000000000000000000000000000000000000000000000000096e6f766135337061790000000000000000000000000000000000000000000000",
      "r": "0xa04b414b0ce9303530296a2f1e52f3d92bb103128d41a9698f87dbdc97e2d214",
      "s": "0x6e8d4047a7d8a1818cb334a1fd7db1d2596b9919f1a0f01dfe48a5a0a9cb11bc",
      "yParity": "0x1",
      "v": "0x1",
      "hash": "0x577f849cc3dd45c4e562208955542d4431a0d3f8c29a3f8acc25b98240bd1afa",
      "blockHash": "0x3c09b6099ec60559fd2c71047cf6fe07c267d9fe3699e3a2afc42c9b6685d3e3",
      "blockNumber": "0x5b8e32",
      "transactionIndex": "0x7",
      "from": "0x4058ae0d5ac695c5dc4db7edad51838c435e2fca",
      "gasPrice": "0x4a8270a40"
    },
    {
      "type": "0x2",
      "chainId": "0xa5bf",
      "nonce": "0x38",
      "gas": "0xfff2",
      "maxFeePerGas": "0x9503ed240",
      "maxPriorityFeePerGas": "0xf4240",
      "to": "0x20c0000000000000000000000000000000000002",
      "value": "0x0",
      "accessList": [],
      "input": "0xa9059cbb000000000000000000000000129776592607badd111f4d735f96270558095787000000000000000000000000000000000000000000000000000001577cad6d11",
      "r": "0xee43b5ee14cf39f70948d1dfb6b76f609f04221d5ead6d619dff1186e29529eb",
      "s": "0x2063206d9ffb9af6ae6ac76a6cdc96de5ed235ebe8b7cc2d7f58bb4f8c450620",
      "yParity": "0x0",
      "v": "0x0",
      "hash": "0x4347edf95a81dc51b2328b413b464ddc7d43de1949bc1e0c13330e8030be135d",
      "blockHash": "0x3c09b6099ec60559fd2c71047cf6fe07c267d9fe3699e3a2afc42c9b6685d3e3",
      "blockNumber": "0x5b8e32",
      "transactionIndex": "0x8",
      "from": "0xae9854ce3cb40c4ced13045c068bea160821f4d8",
      "gasPrice": "0x4a8270a40"
    },
    {
      "type": "0x2",
      "chainId": "0xa5bf",
      "nonce": "0x41",
      "gas": "0xef0c",
      "maxFeePerGas": "0x9503ed240",
      "maxPriorityFeePerGas": "0xf4240",
      "to": "0x20c0000000000000000000000000000000000002",
      "value": "0x0",
      "accessList": [],
      "input": "0xa9059cbb00000000000000000000000098c217c231633216f21a3d78b4fa7ccbcc7e972f0000000000000000000000000000000000000000000000000000066be1374696",
      "r": "0x1d12ae966e3671dab25d1f3c66e7df2b344dbf59ae204c410ba419c18c46e80c",
      "s": "0x1b780d1551416633e0a3871ed40b5f35bea874cf81be5914fb5320567e295e8e",
      "yParity": "0x1",
      "v": "0x1",
      "hash": "0xbe8c4add21c7b2e8af1ac2ab694a13af35f5e5199aa8524adf3a2bf58b991853",
      "blockHash": "0x3c09b6099ec60559fd2c71047cf6fe07c267d9fe3699e3a2afc42c9b6685d3e3",
      "blockNumber": "0x5b8e32",
      "transactionIndex": "0x9",
      "from": "0x853c400a5e706b8a0d3535c4232cfa464cfa48ac",
      "gasPrice": "0x4a8270a40"
    },
    {
      "type": "0x2",
      "chainId": "0xa5bf",
      "nonce": "0x50",
      "gas": "0xfff2",
      "maxFeePerGas": "0x9503ed240",
      "maxPriorityFeePerGas": "0xf4240",
      "to": "0x20c0000000000000000000000000000000000002",
      "value": "0x0",
      "accessList": [],
      "input": "0xa9059cbb000000000000000000000000e23ed10db80e615eb9fb6dbe02bc4f4ba5b041480000000000000000000000000000000000000000000000000000025454d2ed2c",
      "r": "0x7683eecbf666a3cdf7948a59e267ea1ae9fe9737afe3bded464b199f094bc306",
      "s": "0x3214dcd4692cba7a4ad46eddf5dbb953e4c190a0f71f76dd689d1c639eafd61e",
      "yParity": "0x1",
      "v": "0x1",
      "hash": "0x8322194c3519e9ef3b8991ec78e78ea6fe0e7edcec90d68877ca1a2ab052eba0",
      "blockHash": "0x3c09b6099ec60559fd2c71047cf6fe07c267d9fe3699e3a2afc42c9b6685d3e3",
      "blockNumber": "0x5b8e32",
      "transactionIndex": "0xa",
      "from": "0x0a73a1aa1656644a0f7dfd508bed7b44cd13c6c0",
      "gasPrice": "0x4a8270a40"
    },
    {
      "type": "0x2",
      "chainId": "0xa5bf",
      "nonce": "0xc",
      "gas": "0xb5230",
      "maxFeePerGas": "0x9503ed240",
      "maxPriorityFeePerGas": "0xf4240",
      "to": "0xc21df1bb620ebe7f5ae0144df50de28ce0d47ae7",
      "value": "0x0",
      "accessList": [],
      "input": "0x84a3bb6b0000000000000000000000000000000000000000000000000000000000000000",
      "r": "0x25fc6e43c7911739b2afb9cd76e67d28cf38c292659fec70a5a6ccb41e258242",
      "s": "0x5d93d11d572434b386dabc096619b2e005896c18e4098a5c83249e649c210a95",
      "yParity": "0x0",
      "v": "0x0",
      "hash": "0x9be64c7e2b05d2729ae1acf259fbbfd95908d757d50a0632acf3f017497a3ebb",
      "blockHash": "0x3c09b6099ec60559fd2c71047cf6fe07c267d9fe3699e3a2afc42c9b6685d3e3",
      "blockNumber": "0x5b8e32",
      "transactionIndex": "0xb",
      "from": "0x808d1448c725013412cbe7c97b40099619933fb2",
      "gasPrice": "0x4a8270a40"
    },
    {
      "type": "0x2",
      "chainId": "0xa5bf",
      "nonce": "0x5f",
      "gas": "0xef0c",
      "maxFeePerGas": "0x9503ed240",
      "maxPriorityFeePerGas": "0xf4240",
      "to": "0x20c0000000000000000000000000000000000002",
      "value": "0x0",
      "accessList": [],
      "input": "0xa9059cbb0000000000000000000000007011a9a7694a2e69192c32c87b6792bbce1185e50000000000000000000000000000000000000000000000000000028b95f39bc3",
      "r": "0x154771e567bee0fb77ff6110463c4333cd64b065a038fb9f7071341938bccfde",
      "s": "0x6282dbf1119ba14ccb4e7a57a964a1f0be3d2206ec19da4f82dfecc13c551d3d",
      "yParity": "0x0",
      "v": "0x0",
      "hash": "0xb35d55e2f2655bed05d1e08d50b366c625ee868a099709c68e59ce8655869b75",
      "blockHash": "0x3c09b6099ec60559fd2c71047cf6fe07c267d9fe3699e3a2afc42c9b6685d3e3",
      "blockNumber": "0x5b8e32",
      "transactionIndex": "0xc",
      "from": "0xf0d661e633e78e8c32081a3d98cfd959b4379892",
      "gasPrice": "0x4a8270a40"
    },
    {
      "type": "0x2",
      "chainId": "0xa5bf",
      "nonce": "0x1d5",
      "gas": "0x4c4b40",
      "maxFeePerGas": "0x9502f9002",
      "maxPriorityFeePerGas": "0x2",
      "to": "0xdec0000000000000000000000000000000000000",
      "value": "0x0",
      "accessList": [],
      "input": "0xf8856c0f00000000000000000000000020c000000000000000000000000000000000000100000000000000000000000020c000000000000000000000000000000000000200000000000000000000000000000000000000000000000000000000005b8d8000000000000000000000000000000000000000000000000000000000005c18d6",
      "r": "0x7c9127520ebbc1e79d30966f27d1d8b863326fecb4872c1181d51fc6390e5a85",
      "s": "0x284b28c4af8adf7b36fefae713ecf4c1293b4c262c3acacdf6c32e5dcceb499c",
      "yParity": "0x0",
      "v": "0x0",
      "hash": "0xd4e8cecbec4c915412138611557cde98d5812e1009352276d7e6dd21b7ee22a2",
      "blockHash": "0x3c09b6099ec60559fd2c71047cf6fe07c267d9fe3699e3a2afc42c9b6685d3e3",
      "blockNumber": "0x5b8e32",
      "transactionIndex": "0xd",
      "from": "0x4f78a3623da379327a171b95e504bea63146a496",
      "gasPrice": "0x4a817c802"
    },
    {
      "type": "0x2",
      "chainId": "0xa5bf",
      "nonce": "0x145",
      "gas": "0x24172",
      "maxFeePerGas": "0x59682f002",
      "maxPriorityFeePerGas": "0x2",
      "to": "0xdec0000000000000000000000000000000000000",
      "value": "0x0",
      "accessList": [],
      "input": "0xf8856c0f00000000000000000000000020c000000000000000000000000000000000000000000000000000000000000020c000000000000000000000000000000000000100000000000000000000000000000000000000000000000000000000013632d700000000000000000000000000000000000000000000000000000000013318bb",
      "r": "0xca0c4fb86fc9bcdc5dfe122234f6a178365d9a027a1ffaba2b921f09082aa998",
      "s": "0x3ba66e56fbce0785e815f2461febdcb53a24ad8943e3c917e032ed4cf6b69a36",
      "yParity": "0x0",
      "v": "0x0",
      "hash": "0x813cb565dd80b0f7bb8e32b3a10614598c74c49d8c87270154885783a634b96c",
      "blockHash": "0x3c09b6099ec60559fd2c71047cf6fe07c267d9fe3699e3a2afc42c9b6685d3e3",
      "blockNumber": "0x5b8e32",
      "transactionIndex": "0xe",
      "from": "0xb55740a1840d742c9f1587b2149c0e71500e3746",
      "gasPrice": "0x4a817c802"
    },
    {
      "type": "0x2",
      "chainId": "0xa5bf",
      "nonce": "0x246",
      "gas": "0xa946",
      "maxFeePerGas": "0x9502f9002",
      "maxPriorityFeePerGas": "0x2",
      "to": "0x20c0000000000000000000000000000000000002",
      "value": "0x0",
      "accessList": [],
      "input": "0xa9059cbb0000000000000000000000001a320981abb4a698b036e7c8638a6736571ec6d0000000000000000000000000000000000000000000000000000000000000ce7c",
      "r": "0xe3a5cff96d3384f2c231319ee0a5877211086c38daa4d1219abad77a1eb426ca",
      "s": "0x52c6358bafec760d516d3377bd4b7a0c3b71e7388920981bdc5667541e553537",
      "yParity": "0x1",
      "v": "0x1",
      "hash": "0x90200e8bad183e4d11632d87ad886e8ad66268006ee3a290803f9a7b94e145fa",
      "blockHash": "0x3c09b6099ec60559fd2c71047cf6fe07c267d9fe3699e3a2afc42c9b6685d3e3",
      "blockNumber": "0x5b8e32",
      "transactionIndex": "0xf",
      "from": "0x1a320981abb4a698b036e7c8638a6736571ec6d0",
      "gasPrice": "0x4a817c802"
    },
    {
      "type": "0x2",
      "chainId": "0xa5bf",
      "nonce": "0x40c",
      "gas": "0x701d",
      "maxFeePerGas": "0x59682f002",
      "maxPriorityFeePerGas": "0x2",
      "to": "0x20c0000000000000000000000000000000000000",
      "value": "0x0",
      "accessList": [],
      "input": "0x095ea7b3000000000000000000000000dec0000000000000000000000000000000000000000000000000000000000000000000000000000000000000000000000bebc200",
      "r": "0xb204cff9ffaf811f3b86cdd121ea0e30cb92c13f7aff41135eea58130e63b7a8",
      "s": "0x2528c40d025259a8838432c9fc922d1c87d19e0168deedeeea7c36a7813f50ac",
      "yParity": "0x1",
      "v": "0x1",
      "hash": "0x4b92e64aa3634031b8b9ab24dc5544cfb851185f3846ac877f2ba59978dcaaeb",
      "blockHash": "0x3c09b6099ec60559fd2c71047cf6fe07c267d9fe3699e3a2afc42c9b6685d3e3",
      "blockNumber": "0x5b8e32",
      "transactionIndex": "0x10",
      "from": "0x1de4b6273318c8a6664d16893d56770b1e8f31c6",
      "gasPrice": "0x4a817c802"
    },
    {
      "type": "0x2",
      "chainId": "0xa5bf",
      "nonce": "0x240",
      "gas": "0x9ccc",
      "maxFeePerGas": "0x9502f9002",
      "maxPriorityFeePerGas": "0x2",
      "to": "0x20c0000000000000000000000000000000000001",
      "value": "0x0",
      "accessList": [],
      "input": "0xa9059cbb000000000000000000000000824b6326875d664c54d3c0fd1795a95e147282e50000000000000000000000000000000000000000000000000000000000018691",
      "r": "0x5c2eece408362fe43ffb73dc533325a8a743e5d86b4add03b774398c3681d181",
      "s": "0x2492ba04cc5e77afabef22de6af76f8768864f65cc35635d79b807866a6b6104",
      "yParity": "0x0",
      "v": "0x0",
      "hash": "0x2611fd0c841becf0a102c58cc8d8136de37623c6edd7ff605c33791930d58c42",
      "blockHash": "0x3c09b6099ec60559fd2c71047cf6fe07c267d9fe3699e3a2afc42c9b6685d3e3",
      "blockNumber": "0x5b8e32",
      "transactionIndex": "0x11",
      "from": "0x824b6326875d664c54d3c0fd1795a95e147282e5",
      "gasPrice": "0x4a817c802"
    },
    {
      "type": "0x0",
      "chainId": "0xa5bf",
      "nonce": "0x49",
      "gasPrice": "0x4a817c802",
      "gas": "0x30d40",
      "to": "0xe1ef54d8aca357b67c7c0dc8e3f8b7503f507306",
      "value": "0x0",
      "input": "0x1249c58b",
      "r": "0x47fa9f7539a8e9dc2748ae22dab5add82858bbe69060ff979b5073e17fd265dd",
      "s": "0x44464847aa72ce5522b32b4e3a81d6757ac09aed29fc48241853111828507f4a",
      "v": "0x14ba2",
      "hash": "0xc88e84a165b8ac3f02317dd509a01e5a61ef944e1e31769529810ce76bc0997e",
      "blockHash": "0x3c09b6099ec60559fd2c71047cf6fe07c267d9fe3699e3a2afc42c9b6685d3e3",
      "blockNumber": "0x5b8e32",
      "transactionIndex": "0x12",
      "from": "0xf13d6e04707d1d481b0dcc1d49bb1c598ea98a54"
    },
    {
      "type": "0x0",
      "chainId": "0xa5bf",
      "nonce": "0x2536c",
      "gasPrice": "0x4a817c802",
      "gas": "0x7a120",
      "to": "0xdec0000000000000000000000000000000000000",
      "value": "0x0",
      "input": "0x922828f100000000000000000000000020c000000000000000000000000000000000000100000000000000000000000000000000000000000000000000000000004c4b400000000000000000000000000000000000000000000000000000000000000001ffffffffffffffffffffffffffffffffffffffffffffffffffffffffffffff9c0000000000000000000000000000000000000000000000000000000000000064",
      "r": "0x5eecd2ccd1817b2298899dcb71a4fa99c86c4a1810daedc020c034bc46095463",
      "s": "0x1104bafe01efbb696e34e842ca4f1378c3c979ac41d9a20467f115598e5c9837",
      "v": "0x14ba1",
      "hash": "0x6fde62e74b1a76c9948992324989600b0eb2e09f0a2c46d38edf3ea77429b157",
      "blockHash": "0x3c09b6099ec60559fd2c71047cf6fe07c267d9fe3699e3a2afc42c9b6685d3e3",
      "blockNumber": "0x5b8e32",
      "transactionIndex": "0x13",
      "from": "0x497d65c166372983ba32111e5ca64f20ad5b540c"
    },
    {
      "type": "0x2",
      "chainId": "0xa5bf",
      "nonce": "0x52e",
      "gas": "0x4c4b40",
      "maxFeePerGas": "0x4a817c802",
      "maxPriorityFeePerGas": "0x4a817c802",
      "to": "0x20c0000000000000000000000000000000000001",
      "value": "0x0",
      "accessList": [],
      "input": "0xa9059cbb0000000000000000000000005866ac49a5c605af2ec0837c80b2a656e97fbc410000000000000000000000000000000000000000000000000000000000000001",
      "r": "0x2d7b0a9e31e209a94592e39c43dbb2086b24b16b4a5d0d975250f62a4ecb1c28",
      "s": "0x6fad5ced7acd2fcaafe737dc4856f714f7ea573eb6190ab11166f1a9241d5c7b",
      "yParity": "0x0",
      "v": "0x0",
      "hash": "0x4e5f3b338032e5efc7420d18526faa31161064e9e851eed6838f3a9fe6d50e84",
      "blockHash": "0x3c09b6099ec60559fd2c71047cf6fe07c267d9fe3699e3a2afc42c9b6685d3e3",
      "blockNumber": "0x5b8e32",
      "transactionIndex": "0x14",
      "from": "0x5866ac49a5c605af2ec0837c80b2a656e97fbc41",
      "gasPrice": "0x4a817c802"
    },
    {
      "type": "0x2",
      "chainId": "0xa5bf",
      "nonce": "0x2c1",
      "gas": "0x9cb4",
      "maxFeePerGas": "0x9502f9002",
      "maxPriorityFeePerGas": "0x2",
      "to": "0x20c0000000000000000000000000000000000001",
      "value": "0x0",
      "accessList": [],
      "input": "0xa9059cbb000000000000000000000000ec3149bb5a5438b2aab2002bc1af2b5a95282dbd0000000000000000000000000000000000000000000000000000000000001a83",
      "r": "0x7dbc1921aa52e3c57b896b6b8402e15180ca925a80f9bdfc5f225423969a275c",
      "s": "0x62367afb2545878ef03595c18892a7b7e906aa194a37f164cbf7c12f8a5ed050",
      "yParity": "0x1",
      "v": "0x1",
      "hash": "0xaa020908317ab1c5c1ff0a7658575014f873df2bdddac579e194a32653146c6f",
      "blockHash": "0x3c09b6099ec60559fd2c71047cf6fe07c267d9fe3699e3a2afc42c9b6685d3e3",
      "blockNumber": "0x5b8e32",
      "transactionIndex": "0x15",
      "from": "0xec3149bb5a5438b2aab2002bc1af2b5a95282dbd",
      "gasPrice": "0x4a817c802"
    },
    {
      "type": "0x2",
      "chainId": "0xa5bf",
      "nonce": "0x304",
      "gas": "0x9cd8",
      "maxFeePerGas": "0x9502f9002",
      "maxPriorityFeePerGas": "0x2",
      "to": "0x20c0000000000000000000000000000000000001",
      "value": "0x0",
      "accessList": [],
      "input": "0xa9059cbb000000000000000000000000a377bac302f35c7c62b8cb85d05cf60f737804af000000000000000000000000000000000000000000000000000000000431938f",
      "r": "0x16c148b400a9cd71ee6ea68230b562e8158d865d55e5292543dd42645c5ffae6",
      "s": "0x48216ebb90c064c97b707e10bfa1a115b9216a16dda2201c6fe7a41d351bd5fb",
      "yParity": "0x1",
      "v": "0x1",
      "hash": "0x8299759169b37d310d080572a772406ccb652904132701644bad43dedc7586c0",
      "blockHash": "0x3c09b6099ec60559fd2c71047cf6fe07c267d9fe3699e3a2afc42c9b6685d3e3",
      "blockNumber": "0x5b8e32",
      "transactionIndex": "0x16",
      "from": "0xa377bac302f35c7c62b8cb85d05cf60f737804af",
      "gasPrice": "0x4a817c802"
    },
    {
      "type": "0x2",
      "chainId": "0xa5bf",
      "nonce": "0x83",
      "gas": "0x19fcc",
      "maxFeePerGas": "0x9502f9002",
      "maxPriorityFeePerGas": "0x2",
      "to": "0x20c0000000000000000000000000000000000000",
      "value": "0x0",
      "accessList": [],
      "input": "0xa9059cbb0000000000000000000000006021c80710dff388c701c77819ef0dcce9fd391e0000000000000000000000000000000000000000000000000000005a2b8a09e4",
      "r": "0xd9414b37baf156d28d386be66e5b6cc16a604766e695fd28458af31f65a42453",
      "s": "0x1e32a0987f7993ac6f707684762ef9e97e2ee1b11b1c0c92f7feb3264c249be4",
      "yParity": "0x0",
      "v": "0x0",
      "hash": "0x033854bc5261e7ed7eb748f0764f75d8c16909bcf45dc65beea55884d4e25c31",
      "blockHash": "0x3c09b6099ec60559fd2c71047cf6fe07c267d9fe3699e3a2afc42c9b6685d3e3",
      "blockNumber": "0x5b8e32",
      "transactionIndex": "0x17",
      "from": "0x114b56eefd6ec386b004e30f53b4427051793245",
      "gasPrice": "0x4a817c802"
    },
    {
      "type": "0x0",
      "chainId": "0xa5bf",
      "nonce": "0x2ec",
      "gasPrice": "0x4a817c802",
      "gas": "0x243492",
      "to": null,
      "value": "0x0",
      "input": "0x60c0604052600d60809081526c0a8cae6e8409c8ca84060a8b49609b1b60a0525f9061002b9082610100565b506040805180820190915260048152635447304960e01b60208201526001906100549082610100565b50348015610060575f80fd5b506101bb565b634e487b7160e01b5f52604160045260245ffd5b600181811c9082168061008e57607f821691505b6020821081036100ac57634e487b7160e01b5f52602260045260245ffd5b50919050565b601f8211156100fb575f81815260208120601f850160051c810160208610156100d85750805b601f850160051c820191505b818110156100f7578281556001016100e4565b5050505b505050565b81516001600160401b0381111561011957610119610066565b61012d81610127845461007a565b846100b2565b602080601f831160018114610160575f84156101495750858301515b5f19600386901b1c1916600185901b1785556100f7565b5f85815260208120601f198616915b8281101561018e5788860151825594840194600190910190840161016f565b50858210156101ab57878501515f19600388901b60f8161c191681555b5050505050600190811b01905550565b6102fc806101c85f395ff3fe608060405234801561000f575f80fd5b506004361061004a575f3560e01c806306fdde031461004e5780636a6278421461006c57806370a082311461008d57806395d89b41146100b5575b5f80fd5b6100566100bd565b60405161006391906101f2565b60405180910390f35b61007f61007a36600461023d565b610148565b604051908152602001610063565b61007f61009b36600461023d565b6001600160a01b03165f9081526004602052604090205490565b6100566101e5565b5f80546100c99061026a565b80601f01602080910402602001604051908101604052809291908181526020018280546100f59061026a565b80156101405780601f1061011757610100808354040283529160200191610140565b820191905f5260205f20905b81548152906001019060200180831161012357829003601f168201915b505050505081565b600280545f918291908261015b836102a2565b909155505f81815260036020908152604080832080546001600160a01b0319166001600160a01b0389169081179091558352600490915281208054929350906101a3836102a2565b909155505060405181906001600160a01b038516905f907fddf252ad1be2c89b69c2b068fc378daa952ba7f163c4a11628f55a4df523b3ef908290a492915050565b600180546100c99061026a565b5f6020808352835180828501525f5b8181101561021d57858101830151858201604001528201610201565b505f604082860101526040601f19601f8301168501019250505092915050565b5f6020828403121561024d575f80fd5b81356001600160a01b0381168114610263575f80fd5b9392505050565b600181811c9082168061027e57607f821691505b60208210810361029c57634e487b7160e01b5f52602260045260245ffd5b50919050565b5f600182016102bf57634e487b7160e01b5f52601160045260245ffd5b506001019056fea264697066735822122047fc8c87e194bed5e188a8330c5e7f4d25aa78ee583fa8568376a71871668c8064736f6c63430008140033",
      "r": "0xee171ce67422ac1353e949270c26b4e4791071ded60c36b53bd2c432ea15cd69",
      "s": "0x38784a742353d477235f44c3cf4bfdd3fc171ce701196ad588fb0b9da10fc2c3",
      "v": "0x14ba1",
      "hash": "0x0c7680e7f07b273c68d7bce76b27131042df9f6d41184bdae6f29bdc22c73858",
      "blockHash": "0x3c09b6099ec60559fd2c71047cf6fe07c267d9fe3699e3a2afc42c9b6685d3e3",
      "blockNumber": "0x5b8e32",
      "transactionIndex": "0x18",
      "from": "0x7010655130654e97aef90f8ce715be9ec88c2dae"
    },
    {
      "type": "0x2",
      "chainId": "0xa5bf",
      "nonce": "0x19",
      "gas": "0x3d090",
      "maxFeePerGas": "0x4a817c802",
      "maxPriorityFeePerGas": "0x4a817c802",
      "to": "0x58611f480c4070ff30f6c2c535d689e2a081fc63",
      "value": "0x0",
      "accessList": [],
      "input": "0x92dadb2c",
      "r": "0x289cbbdd2416810f32475ddab9279a9c63c521af3f043dd6daeda0e3bb7cb7f",
      "s": "0x6641587ef42bad2ffa5f7ccc1c964a1ba0cbf9beeb87878e958d39bcbb307904",
      "yParity": "0x0",
      "v": "0x0",
      "hash": "0x066604e10fa91f425ae3d3fedd3b68c0154d921357f7c71257192ac9a6c85123",
      "blockHash": "0x3c09b6099ec60559fd2c71047cf6fe07c267d9fe3699e3a2afc42c9b6685d3e3",
      "blockNumber": "0x5b8e32",
      "transactionIndex": "0x19",
      "from": "0x68fefa302e614f1193381d7fb6c8f41a177dda27",
      "gasPrice": "0x4a817c802"
    },
    {
      "type": "0x0",
      "chainId": "0xa5bf",
      "nonce": "0x74e",
      "gasPrice": "0x4a817c802",
      "gas": "0x3d0900",
      "to": null,
      "value": "0x0",
      "input": "0x60806040526002600155348015610014575f80fd5b50610326806100225f395ff3fe608060405234801561000f575f80fd5b506004361061003f575f3560e01c8063609c6d7f14610043578063a2d3044f14610082578063cad0b8db146100a3575b5f80fd5b61006d610051366004610191565b5f60208181529281526040808220909352908152205460ff1681565b60405190151581526020015b60405180910390f35b6100956100903660046101cf565b6100ac565b604051908152602001610079565b61009560015481565b600180545f91829190826100bf836102b8565b9190505590505f5b83518110156101385760015f808481526020019081526020015f205f8684815181106100f5576100f56102dc565b6020908102919091018101516001600160a01b031682528101919091526040015f20805460ff191691151591909117905580610130816102b8565b9150506100c7565b506040516001600160a01b0386169082907f692975d6d42aec50e0f6ff672acde3bf011e71355ed86dd49de0a1f533950cba905f90a3949350505050565b80356001600160a01b038116811461018c575f80fd5b919050565b5f80604083850312156101a2575f80fd5b823591506101b260208401610176565b90509250929050565b634e487b7160e01b5f52604160045260245ffd5b5f805f606084860312156101e1575f80fd5b6101ea84610176565b925060208085013560ff81168114610200575f80fd5b9250604085013567ffffffffffffffff8082111561021c575f80fd5b818701915087601f83011261022f575f80fd5b813581811115610241576102416101bb565b8060051b604051601f19603f83011681018181108582111715610266576102666101bb565b60405291825284820192508381018501918a831115610283575f80fd5b938501935b828510156102a85761029985610176565b84529385019392850192610288565b8096505050505050509250925092565b5f600182016102d557634e487b7160e01b5f52601160045260245ffd5b5060010190565b634e487b7160e01b5f52603260045260245ffdfea2646970667358221220c0f25fabe368fb308dacb01e1fd5603085a5625c20477957ca7246e9964ec42c64736f6c63430008140033",
      "r": "0xaed71c7e4b931984d751a537901a7ba9a5607d42c10564adc6e9a57235222f28",
      "s": "0x77197f9f9787fe302c65684eb515cea9ec7fe528c0e0e67ae8c452162e79e3f1",
      "v": "0x14ba2",
      "hash": "0x85358760bca57a7a1cbb255b5b65f1f727e65abc97d1e028202794de69c9473d",
      "blockHash": "0x3c09b6099ec60559fd2c71047cf6fe07c267d9fe3699e3a2afc42c9b6685d3e3",
      "blockNumber": "0x5b8e32",
      "transactionIndex": "0x1a",
      "from": "0x4cbadebc0ce2ebd02b4836f9ee6bc020dd4fb9f5"
    },
    {
      "type": "0x76",
      "chainId": "0xa5bf",
      "feeToken": null,
      "maxPriorityFeePerGas": "0x2",
      "maxFeePerGas": "0x9502f9002",
      "gas": "0xf7a2",
      "calls": [
        {
          "to": "0x20c0000000000000000000000000000000000003",
          "value": "0x0",
          "input": "0x40c10f19000000000000000000000000a071c13d29e84fda9dd423c3ea315165832f77d2000000000000000000000000000000000000000000000000000000e8d4a51000",
          "data": null
        }
      ],
      "accessList": [],
      "nonceKey": "0xffffffffffffffffffffffffffffffffffffffffffffffffffffffffffffffff",
      "nonce": "0x0",
      "feePayerSignature": null,
      "validBefore": "0x699c1105",
      "validAfter": null,
      "keyAuthorization": null,
      "aaAuthorizationList": [],
      "signature": {
        "type": "secp256k1",
        "r": "0x738e641cc943e63f14020b3cfe289fa1838e330ea3d966c939eb9cc77ce16ae5",
        "s": "0x6b184a75220c857f536881d9776314fec9b2b93a0f91dadf22b9c3220c257dc3",
        "yParity": "0x1",
        "v": "0x1"
      },
      "hash": "0xd73d1d278a59f8283bae590dec7351726bcef2a1549da59103e150bab34a4f59",
      "blockHash": "0x3c09b6099ec60559fd2c71047cf6fe07c267d9fe3699e3a2afc42c9b6685d3e3",
      "blockNumber": "0x5b8e32",
      "transactionIndex": "0x1b",
      "from": "0x5bc1473610754a5ca10749552b119df90c1a1877",
      "gasPrice": "0x4a817c802"
    },
    {
      "type": "0x76",
      "chainId": "0xa5bf",
      "feeToken": null,
      "maxPriorityFeePerGas": "0x2",
      "maxFeePerGas": "0x9502f9002",
      "gas": "0x1042f",
      "calls": [
        {
          "to": "0x20c0000000000000000000000000000000000002",
          "value": "0x0",
          "input": "0x40c10f190000000000000000000000009bf28fe32e8e1790cdeaa8e5f1869ed63efc2008000000000000000000000000000000000000000000000000000000e8d4a51000",
          "data": null
        }
      ],
      "accessList": [],
      "nonceKey": "0xffffffffffffffffffffffffffffffffffffffffffffffffffffffffffffffff",
      "nonce": "0x0",
      "feePayerSignature": null,
      "validBefore": "0x699c1105",
      "validAfter": null,
      "keyAuthorization": null,
      "aaAuthorizationList": [],
      "signature": {
        "type": "secp256k1",
        "r": "0x3161f5bdabe8878e951943dc9dbe602209d20f0fb3d74148eaa997b2c9de0a69",
        "s": "0x329430e75d7c488d656a2b0b7dbcdb4aa6e95cd06170cd087f7685ef965a29b4",
        "yParity": "0x0",
        "v": "0x0"
      },
      "hash": "0x5dcd0b480e11782c699cf714b70e80e9eb4b82e99dcdfbb4755ad989304391fe",
      "blockHash": "0x3c09b6099ec60559fd2c71047cf6fe07c267d9fe3699e3a2afc42c9b6685d3e3",
      "blockNumber": "0x5b8e32",
      "transactionIndex": "0x1c",
      "from": "0x5bc1473610754a5ca10749552b119df90c1a1877",
      "gasPrice": "0x4a817c802"
    },
    {
      "type": "0x76",
      "chainId": "0xa5bf",
      "feeToken": null,
      "maxPriorityFeePerGas": "0x2",
      "maxFeePerGas": "0x9502f9002",
      "gas": "0x1042f",
      "calls": [
        {
          "to": "0x20c0000000000000000000000000000000000003",
          "value": "0x0",
          "input": "0x40c10f190000000000000000000000009bf28fe32e8e1790cdeaa8e5f1869ed63efc2008000000000000000000000000000000000000000000000000000000e8d4a51000",
          "data": null
        }
      ],
      "accessList": [],
      "nonceKey": "0xffffffffffffffffffffffffffffffffffffffffffffffffffffffffffffffff",
      "nonce": "0x0",
      "feePayerSignature": null,
      "validBefore": "0x699c1105",
      "validAfter": null,
      "keyAuthorization": null,
      "aaAuthorizationList": [],
      "signature": {
        "type": "secp256k1",
        "r": "0x3be15d3c5b938e9d19631eb6458e5b78e3b9c4a535dcb35a69f1eeb1b9d51b48",
        "s": "0x77380a152c2ee0ef8ab5f6442092bb85d6f6f5db939573fcf25e8376d86af7a9",
        "yParity": "0x1",
        "v": "0x1"
      },
      "hash": "0x3c5d5e38cf6b8bf6772b9c4c2a57d60fabd1ac183450375684211da6093ce1b2",
      "blockHash": "0x3c09b6099ec60559fd2c71047cf6fe07c267d9fe3699e3a2afc42c9b6685d3e3",
      "blockNumber": "0x5b8e32",
      "transactionIndex": "0x1d",
      "from": "0x5bc1473610754a5ca10749552b119df90c1a1877",
      "gasPrice": "0x4a817c802"
    },
    {
      "type": "0x76",
      "chainId": "0xa5bf",
      "feeToken": null,
      "maxPriorityFeePerGas": "0x2",
      "maxFeePerGas": "0x9502f9002",
      "gas": "0x1042f",
      "calls": [
        {
          "to": "0x20c0000000000000000000000000000000000000",
          "value": "0x0",
          "input": "0x40c10f190000000000000000000000009ee8ae7a1f9413c9282b319637cc352f0ca68a27000000000000000000000000000000000000000000000000000000e8d4a51000",
          "data": null
        }
      ],
      "accessList": [],
      "nonceKey": "0xffffffffffffffffffffffffffffffffffffffffffffffffffffffffffffffff",
      "nonce": "0x0",
      "feePayerSignature": null,
      "validBefore": "0x699c1105",
      "validAfter": null,
      "keyAuthorization": null,
      "aaAuthorizationList": [],
      "signature": {
        "type": "secp256k1",
        "r": "0x6e8669106ce9aa30ff55047e2820b25b37bdb98089624b890d4acea925bf25f0",
        "s": "0xf9f94a497316be336a348e17c67297418963c602a6dc23c522e790342e162c4",
        "yParity": "0x1",
        "v": "0x1"
      },
      "hash": "0x4b57d0d23e8680086d2e8e87b9183c3255e9e5ccad1781faabb03d1baba1d7c0",
      "blockHash": "0x3c09b6099ec60559fd2c71047cf6fe07c267d9fe3699e3a2afc42c9b6685d3e3",
      "blockNumber": "0x5b8e32",
      "transactionIndex": "0x1e",
      "from": "0x5bc1473610754a5ca10749552b119df90c1a1877",
      "gasPrice": "0x4a817c802"
    },
    {
      "type": "0x76",
      "chainId": "0xa5bf",
      "feeToken": null,
      "maxPriorityFeePerGas": "0x2",
      "maxFeePerGas": "0x9502f9002",
      "gas": "0x1042f",
      "calls": [
        {
          "to": "0x20c0000000000000000000000000000000000001",
          "value": "0x0",
          "input": "0x40c10f190000000000000000000000009ee8ae7a1f9413c9282b319637cc352f0ca68a27000000000000000000000000000000000000000000000000000000e8d4a51000",
          "data": null
        }
      ],
      "accessList": [],
      "nonceKey": "0xffffffffffffffffffffffffffffffffffffffffffffffffffffffffffffffff",
      "nonce": "0x0",
      "feePayerSignature": null,
      "validBefore": "0x699c1105",
      "validAfter": null,
      "keyAuthorization": null,
      "aaAuthorizationList": [],
      "signature": {
        "type": "secp256k1",
        "r": "0x5d9ecf1005b8ee192bc070979867c0a3b5e2d89f78d24dfc383282abb7ab100a",
        "s": "0x437fd1cfc9bf6c1050543874f7b46e50b43915a4ddfbb711afacfad1a8d6f773",
        "yParity": "0x0",
        "v": "0x0"
      },
      "hash": "0xc7a7fe8cfe084b46c9cecb26b89e1654fd1adf2e94c719f638c27c5b15c199e4",
      "blockHash": "0x3c09b6099ec60559fd2c71047cf6fe07c267d9fe3699e3a2afc42c9b6685d3e3",
      "blockNumber": "0x5b8e32",
      "transactionIndex": "0x1f",
      "from": "0x5bc1473610754a5ca10749552b119df90c1a1877",
      "gasPrice": "0x4a817c802"
    },
    {
      "type": "0x76",
      "chainId": "0xa5bf",
      "feeToken": null,
      "maxPriorityFeePerGas": "0x2",
      "maxFeePerGas": "0x9502f9002",
      "gas": "0x1042f",
      "calls": [
        {
          "to": "0x20c0000000000000000000000000000000000000",
          "value": "0x0",
          "input": "0x40c10f19000000000000000000000000e3d51e3403b3013a82535ded6c5161c23a7ac8bb000000000000000000000000000000000000000000000000000000e8d4a51000",
          "data": null
        }
      ],
      "accessList": [],
      "nonceKey": "0xffffffffffffffffffffffffffffffffffffffffffffffffffffffffffffffff",
      "nonce": "0x0",
      "feePayerSignature": null,
      "validBefore": "0x699c1105",
      "validAfter": null,
      "keyAuthorization": null,
      "aaAuthorizationList": [],
      "signature": {
        "type": "secp256k1",
        "r": "0x7a823cccba5170051b150745099969a13e29f513a9f0ba2838b48783d97a98f2",
        "s": "0xf8cd76ec37b78c1066f2714ec7b69e26efb9d6666933480bf4ec50e3b5909b9",
        "yParity": "0x0",
        "v": "0x0"
      },
      "hash": "0x5a80efab0f5dabe42b8d9a3bab6d39fdf0a2300ccec8eaa6ab4f49b1721660f2",
      "blockHash": "0x3c09b6099ec60559fd2c71047cf6fe07c267d9fe3699e3a2afc42c9b6685d3e3",
      "blockNumber": "0x5b8e32",
      "transactionIndex": "0x20",
      "from": "0x5bc1473610754a5ca10749552b119df90c1a1877",
      "gasPrice": "0x4a817c802"
    },
    {
      "type": "0x2",
      "chainId": "0xa5bf",
      "nonce": "0x9d",
      "gas": "0x7029",
      "maxFeePerGas": "0x4a817c802",
      "maxPriorityFeePerGas": "0x0",
      "to": "0x20c0000000000000000000000000000000000001",
      "value": "0x0",
      "accessList": [],
      "input": "0x095ea7b3000000000000000000000000dec00000000000000000000000000000000000000000000000000000000000000000000000000000000000000000000009b976ec",
      "r": "0x48627705ad209ff4acf7b3c35e54a7023226f50764fcca4dc6aefbff00deeaa3",
      "s": "0x62d173deeb995eb0225cbedc7e7f628b65a6f267160fbe535204c2d75a8f6669",
      "yParity": "0x1",
      "v": "0x1",
      "hash": "0x17987b24e657eb049a0b428f84f66c6d96c6870ab2d003d3b795d13d1be7e68f",
      "blockHash": "0x3c09b6099ec60559fd2c71047cf6fe07c267d9fe3699e3a2afc42c9b6685d3e3",
      "blockNumber": "0x5b8e32",
      "transactionIndex": "0x21",
      "from": "0xa15bb7e2fef9504c7fd0565ed4a6d1a959eada09",
      "gasPrice": "0x4a817c800"
    },
    {
      "type": "0x0",
      "chainId": "0xa5bf",
      "nonce": "0x0",
      "gasPrice": "0x0",
      "gas": "0x0",
      "to": "0x0000000000000000000000000000000000000000",
      "value": "0x0",
      "input": "0xf90267f87901a069d0cb754f0b7bbed95a3ab7a3918d28a51615fdecaf4fbc17e4c46e66b4969e940000000000000000000000000000000000000000b840256d6ed5d7828c0d4f03577aded04b04bcea1f2ceb88544b3bc528dcce678175ff30d6ecfd8bebb3698f1b39d6aed4dae963dcdd669508e31809dce05b68b60ef87901a08cd2e02cd30acdd8ef29d9200ef2b7967e1e9fe2eba68939567f1128d35d67d6940000000000000000000000000000000000000000b840c585771dbea52c5761471db8b32213d8d59da6aadea65580e397a36d8ca45b544b9bc4bb7ccf2354d4a03500741e3a82eff1d846390cabd4eaf00ed7c1b62c0ef87901a0c3d14612f999757d1c5ebc585fd5f91aa3b4c06dc796f91e82315c15a28a1161940000000000000000000000000000000000000000b84070af63e96084f38275cac20f7fd42355d3b3be1eb09a8fd79ebb448ef5c8b59273448fa65ef7dbe9b224494b59a647ef19a4b7f5b0c91ee2daec7574edd22b01f87901a02bebc9a97ffb46c0a7156e7ec8c0e44b47d72bfa9d9fec6d6be5024f31e87570940000000000000000000000000000000000000000b840999f027070f23e148a608abe0e127107d4a303ef91978f1d62a78f15ff132bfbb59d0fa73e18118efd09fa101e32d2850744f9e48f01ee1ddecf1d0cd2727307f87901a0b0b9d56b9d225d06c76df3ad82b8ce8690ce3d07016d0268155158967ce7c6f8940000000000000000000000000000000000000000b8409efb0b3ea9e0dad06e77dac285e86a3460927b6e738573312a5a7451419dc0f7fd80a28db6b81c9b7b27c32caa5e9029ad4e1d08e98dbb4ed319627611cb140f00000000000000000000000000000000000000000000000000000000005b8e32",
      "r": "0x0",
      "s": "0x0",
      "v": "0x14ba1",
      "hash": "0xa64cd93441e25a229ff20201fed821144921b735bd6c580911a106bfdfaeb4ea",
      "blockHash": "0x3c09b6099ec60559fd2c71047cf6fe07c267d9fe3699e3a2afc42c9b6685d3e3",
      "blockNumber": "0x5b8e32",
      "transactionIndex": "0x22",
      "from": "0x0000000000000000000000000000000000000000"
    }
  ],
  "withdrawals": []
}