{
  "hash": "0x3e6995242d2c6d491e02042ef7ed15b45c729e5f66fbdcb1be21777ebe8aa8c1",
  "mainBlockGeneralGasLimit": "0xd693a40",
  "sharedGasLimit": "0x2faf080",
  "timestampMillisPart": "0x91",
  "parentHash": "0x9c16c2e16a0f90f3bfe27ba5ac87939c067c4f754faa329120f3f5bbdcb95ef9",
  "sha3Uncles": "0x1dcc4de8dec75d7aab85b567b6ccd41ad312451b948a7413f0a142fd40d49347",
  "miner": "0x0000000000000000000000000000000000000000",
  "stateRoot": "0x1dfac7bdfbdbcca3e146acab14fd70fd1c39ef5c55fe20f93fde844a39ffaa5d",
  "transactionsRoot": "0xf31a3e2b5d64ff5a3f9f6fe3f8cbc65d65a345fd25535e32757a05232624e548",
  "receiptsRoot": "0xb64408da6b8fe39ab764af88ece1e8cca1c35fd988db57806e99138c629365a0",
  "logsBloom": "0x00000000000000000000000000000000000000000000000000000000000000000000000000000000000000000000000000000000000000000000000000000000000000000000000000000000000000000000000000000000000000000000000000000000000000000000000000000000000000000000000000000000000000000000000000000000000000000000000000000000000000000000000000000000000000000000000000000000000000000000000000000000000000000000000000000000000000000000000000000000000000000000000000000000000000000000000000000000000000000000000000000000000000000000000000000000",
  "difficulty": "0x0",
  "number": "0x198d",
  "gasLimit": "0x1dcd6500",
  "gasUsed": "0x0",
  "timestamp": "0x695ffb21",
  "extraData": "0x",
  "mixHash": "0x0000000000000000000000000000000000000000000000000000000000000000",
  "nonce": "0x0000000000000000",
  "baseFeePerGas": "0x2540be400",
  "withdrawalsRoot": "0x56e81f171bcc55a6ff8345e692c0f86e5b48e01b996cadc001622fb5e363b421",
  "blobGasUsed": "0x0",
  "excessBlobGas": "0x0",
  "parentBeaconBlockRoot": "0x0000000000000000000000000000000000000000000000000000000000000000",
  "requestsHash": "0xe3b0c44298fc1c149afbf4c8996fb92427ae41e4649b934ca495991b7852b855",
  "size": "0x4b0",
  "timestampMillis": "0x19b9eecf979",
  "uncles": [],
  "transactions": [
    {
      "type": "0x0",
      "chainId": "0xa5bf",
      "nonce": "0x0",
      "gasPrice": "0x0",
      "gas": "0x0",
      "to": "0x0000000000000000000000000000000000000000",
      "value": "0x0",
      "input": "0xf901ecf87901a0c3d14612f999757d1c5ebc585fd5f91aa3b4c06dc796f91e82315c15a28a1161940000000000000000000000000000000000000000b840870706b8a7be44ea76b484262bc17a5bb89253338a3b74715fe4a94fe39ff6005403b18b205852353fcc72392a323bc17aa6eee5fb64d521b0f903f9c6204205f87901a0b0b9d56b9d225d06c76df3ad82b8ce8690ce3d07016d0268155158967ce7c6f8940000000000000000000000000000000000000000b840f10ecd23051f50595239107abfc4572aef2aba37ab4e7bc5e87123035b5af975c82d8f1f41eba2ea14a569d40b47be3d46af436ed2c9dfc6497422dde4a43106f87901a0a1b9e7021e71ff029638d48df86144a5335d601737095820843c5c530f1dc789940000000000000000000000000000000000000000b84050d1eb2ad6dedfbe67eafbceb650cdd79628bf07049f943332da47a15148d0424a1ca9f9c3eaef5490eae3e15da2cd61c2914127ab491f6198c93b574cc27608f87901a08cd2e02cd30acdd8ef29d9200ef2b7967e1e9fe2eba68939567f1128d35d67d6940000000000000000000000000000000000000000b840d931212e223be7a5af8390f85981d0cc393c6b460a51b2a2df51c561e8b18d2fe951295401a0c9a2406b779172a4638a77c4598b8df651ca26cacf0374a3380b000000000000000000000000000000000000000000000000000000000000198d",
      "r": "0x0",
      "s": "0x0",
      "v": "0x14ba1",
      "hash": "0xcb7fcf25ef9eb616acf3a41b494060f6bbc7eac55e76e54480530a04f98d10a0",
      "blockHash": "0x3e6995242d2c6d491e02042ef7ed15b45c729e5f66fbdcb1be21777ebe8aa8c1",
      "blockNumber": "0x198d",
      "transactionIndex": "0x0",
      "from": "0x0000000000000000000000000000000000000000"
    }
  ],
  "withdrawals": []
}